:100000000C9446000C9465000C9465000C946500FB
:100010000C9465000C948C010C9465000C946500A4
:100020000C9465000C9465000C9465000C946500BC
:100030000C9465000C9465000C9465000C946500AC
:100040000C949B010C9465000C9465000C94650065
:100050000C9465000C9465000C9465000C9465008C
:100060000C9465000C9465000C9465000C9465007C
:100070000C9465000C9465000C9465000C9465006C
:100080000C9465000C9465000C94650011241FBE4F
:10009000CFEFD0E1DEBFCDBF11E0A0E0B1E0EEEAEE
:1000A000FFE000E00BBF02C007900D92A032B10745
:1000B000D9F721E0A0E2B1E001C01D92A732B2075A
:1000C000E1F70E94C4010C94D5070C940000C0987D
:1000D00083E08FB9779BFECF9FB9779BFECF1FB888
:1000E000779BFECF1FB8779BFECF8FB1FB0180833C
:1000F0001FB8779BFECF8FB1FB018183C09A089513
:10010000C09886E08FB9779BFECFC09AC09882E0F6
:100110008FB9779BFECF9FB9779BFECF1FB8779B98
:10012000FECFFB0180818FB9779BFECFFB018181E0
:100130008FB9779BFECFC09A95E0C0989FB9779B07
:10014000FECF1FB8779BFECF8FB11FB8779BFECF36
:10015000C09A80FDF2CF0895AC014A505E4FFC0179
:100160002191CF01222331F05D9BFECF2CB9841762
:100170009507A9F708958091740087FFFCCF089533
:100180000F931F93CF938C01C62F0E94BB0084E86E
:10019000C11101C084EC809374000E94BB00809167
:1001A0007300F801808380917100883511F4CC23AD
:1001B00051F080917100803531F080917100CF91C4
:1001C0001F910F9108958FEFFACFCF93C82F0E9400
:1001D000BB00C093730084E8809374000E94BB004E
:1001E00080917100883141F080917100803421F05C
:1001F00080917100CF9108958FEFFCCFCF93C82FDE
:100200000E94BB00C093730084E8809374000E9436
:10021000BB0080917100883221F080917100CF91F4
:1002200008958FEFFCCF84EA809374000E94BB0096
:1002300080917100883039F080917100803119F01F
:100240008091710008958FEF0895282FFC0180E0C0
:1002500031E39191892798E0582F880F57FD832724
:100260009150D1F79E2F921B961798F3841711F097
:1002700084E0089580E00895CF92DF92EF92FF929C
:100280001F93CF93DF9300D01F92CDB7DEB76C01E1
:100290007B010E941301182F80E80E94E500182BB3
:1002A000CA94CD28B9F185EE0E94FE00182B0E9459
:1002B0001301182B81E80E94E500182B60E0CE01A5
:1002C00001960E94C000182B60E0CE0102960E94A9
:1002D000C000182B8981F70181838A81808361E0C6
:1002E000CE0103960E94C000182B4B8162E0CE0124
:1002F00001960E94250194E990937400812B0F9040
:100300000F900F90DF91CF911F91FF90EF90DF90B2
:10031000CF90089583EEC8CF1F920F920FB60F9221
:1003200011248F9381E0809326018F910F900FBE4F
:100330000F901F9018951F920F920FB60F921124D5
:100340002F938F939F938091240190912501019683
:10035000909325018093240180912401909125019F
:10036000843F914038F0109225011092240181E0E1
:100370008093000180E782BF9F918F912F910F9012
:100380000FBE0F901F901895CF93DF93CDB7DEB7B8
:1003900062970FB6F894DEBF0FBECDBF87B38760FC
:1003A00087BBC09A80E58DB91EB881E48093700048
:1003B00084E0809374000E94130180E80E94E500AD
:1003C0008EEF0E94FE0084E9F82EF09274008FE513
:1003D0009AEE0197F1F700C000000E94130180E837
:1003E0000E94E5008AEF0E94FE008FE00E94FE005E
:1003F0000E94130181E80E94E50060E0CE010696AC
:100400000E94C00060E0CE0141960E94C00060E002
:10041000CE0105960E94C00060E0CE0141960E9488
:10042000C00060E0CE0104960E94C00060E0CE01F2
:1004300041960E94C00060E0CE0103960E94C00079
:1004400061E0CE0141960E94C000F09274000E94CB
:10045000130180E80E94E5008CEF0E94FE0089EC09
:100460000E94FE000E94130181E80E94E50060E006
:10047000CE0102960E94C00060E08E010F5F1F4F08
:10048000C8010E94C00060E0CE0141960E94C000F9
:1004900060E0CE0108960E94C00060E0CE010796A1
:1004A0000E94C00061E0CE0141960E94C000F0921F
:1004B00074000E94130180E80E94E50087EE0E940C
:1004C000FE000E94130181E80E94E50060E0CE0179
:1004D00042960E94C00061E0CE0141960E94C00099
:1004E000F09274008A898E7780688A8B0E9413014B
:1004F00080E80E94E50086EE0E94FE008A890E9444
:10050000FE00F09274008BB18BB988E18AB986E164
:10051000809395001092900087E089B992E092B99B
:1005200093E09ABF90E199BF83BF80E782BF81E0EB
:1005300087BF78949AE0E92EF12C2AE0A22E21E0E0
:10054000B22E39E1C32E31E0D32E809100018823F1
:1005500009F450C062E271E081E090E00E943C0149
:1005600060E271E090E080E00E943C016091220135
:10057000709123016C7F90E080E00E94EF0322E500
:1005800038EB4FE25BE30E947D0426E636E64BE360
:1005900052E40E9453030E94C003709323016093AE
:1005A000220160912001709121016C7F90E080E038
:1005B0000E94EF0320E030E04AEF5AE30E947D04FE
:1005C00020E030E040EC50E40E9453030E94C0035E
:1005D000709321016093200162E271E080E091E07C
:1005E0000E94800060E271E080E092E00E94800062
:1005F0001092000180912601882309F4A6CF62E2BF
:1006000071E080E091E00E94670060E271E080E0CC
:1006100092E00E94670081E091E00E94AC0080912E
:100620002201909123012091220130912301B701F1
:100630000E94EA049F938F93C901B7010E94EA04C4
:100640007F936F93BF92AF921F930F930E94FE040C
:10065000C8010E94AC0080E191E00E94AC00809152
:100660002001909121012091200130912101B701B9
:100670000E94EA049F938F93C901B7010E94EA0484
:100680007F936F93DF92CF921F930F930E94FE048C
:10069000C8010E94AC00109226010FB6F894DEBF8C
:1006A0000FBECDBF52CF5058BB27AA270E946B0365
:1006B0000C9443040E94350438F00E943C0420F05E
:1006C00039F49F3F19F426F40C9432040EF4E095AB
:1006D000E7FB0C942C04E92F0E94540458F3BA173A
:1006E000620773078407950720F079F4A6F50C9448
:1006F00076040EF4E0950B2EBA2FA02D0B01B90154
:1007000090010C01CA01A0011124FF27591B99F087
:10071000593F50F4503E68F11A16F040A22F232F93
:10072000342F4427585FF3CF469537952795A795E3
:10073000F0405395C9F77EF41F16BA0B620B730B8A
:10074000840BBAF09150A1F0FF0FBB1F661F771FFB
:10075000881FC2F70EC0BA0F621F731F841F48F4B0
:10076000879577956795B795F7959E3F08F0B0CF39
:100770009395880F08F09927EE0F97958795089520
:100780000E945C0488F09F5798F0B92F9927B751C1
:10079000B0F0E1F0660F771F881F991F1AF0BA9525
:1007A000C9F714C0B13091F00E947604B1E0089509
:1007B0000C947604672F782F8827B85F39F0B93FFB
:1007C000CCF3869577956795B395D9F73EF49095D8
:1007D0008095709561957F4F8F4F9F4F0895E89456
:1007E00009C097FB3EF490958095709561957F4F79
:1007F0008F4F9F4F9923A9F0F92F96E9BB27939527
:10080000F695879577956795B795F111F8CFFAF436
:10081000BB0F11F460FF1BC06F5F7F4F8F4F9F4F67
:1008200016C0882311F096E911C0772321F09EE8C5
:10083000872F762F05C0662371F096E8862F70E02B
:1008400060E02AF09A95660F771F881FDAF7880F05
:100850009695879597F9089597F99F6780E870E0D6
:1008600060E008959FEF80EC089500240A94161626
:10087000170618060906089500240A94121613068E
:10088000140605060895092E0394000C11F488231C
:1008900052F0BB0F40F4BF2B11F460FF04C06F5F38
:1008A0007F4F8F4F9F4F089557FD9058440F551F0E
:1008B00059F05F3F71F04795880F97FB991F61F0E2
:1008C0009F3F79F087950895121613061406551F59
:1008D000F2CF4695F1DF08C0161617061806991FC5
:1008E000F1CF86957105610508940895E894BB27BA
:1008F00066277727CB0197F908950E9490040C94FE
:1009000043040E94350438F00E943C0420F09523F3
:1009100011F00C942C040C94320411240C947704E0
:100920000E94540470F3959FC1F3950F50E0551F3A
:10093000629FF001729FBB27F00DB11D639FAA2734
:10094000F00DB11DAA1F649F6627B00DA11D661F83
:10095000829F2227B00DA11D621F739FB00DA11DA4
:10096000621F839FA00D611D221F749F3327A00D5E
:10097000611D231F849F600D211D822F762F6A2FFA
:1009800011249F5750409AF0F1F088234AF0EE0F5F
:10099000FF1FBB1F661F771F881F91505040A9F78C
:1009A0009E3F510580F00C942C040C9477045F3F1B
:1009B000E4F3983ED4F3869577956795B795F795C8
:1009C000E7959F5FC1F7FE2B880F911D9695879540
:1009D00097F90895AA1BBB1B51E107C0AA1FBB1FB3
:1009E000A617B70710F0A61BB70B881F991F5A95BB
:1009F000A9F780959095BC01CD0108950F931F93A1
:100A0000CF93DF93CDB7DEB72E970FB6F894DEBF46
:100A10000FBECDBF0D891E8986E08C831A830983A2
:100A20008FEF9FE79E838D83AE01475E5F4F6F8997
:100A3000788DCE0101960E942E052F813885020FF8
:100A4000131FF80110822E960FB6F894DEBF0FBE6A
:100A5000CDBFDF91CF911F910F9108952F923F92BB
:100A60004F925F926F927F928F929F92AF92BF92BE
:100A7000CF92DF92EF92FF920F931F93CF93DF936A
:100A8000CDB7DEB72B970FB6F894DEBF0FBECDBF44
:100A90007C013B018A01FC0117821682838181FF60
:100AA000DDC1CE0101965C01F7019381F30193FD55
:100AB000859193FF81913F01882309F453C18532C9
:100AC00039F493FD859193FF81913F01853229F49B
:100AD000B70190E00E944707E7CF912C212C312CE1
:100AE000FFE1F31538F08B3211F190F4803209F107
:100AF000833229F137FC3CC020ED280F2A3050F515
:100B000036FE20C08AE0989E200D1124922E06C049
:100B10008D3291F0803371F7689430F8F30193FDD2
:100B2000859193FF81913F018111DACF21C06894B3
:100B300031F8689432F8F2CF689433F8EFCF6894C4
:100B400034F8ECCFEAE02E9E200D1124222E68947A
:100B500035F8E4CF8E3229F436FC04C1689436F8B7
:100B6000DDCF8C3619F4689437F8D8CF8836B1F2D7
:100B7000982F9F7D95549330E0F08336A1F1833711
:100B8000C1F1833509F063C02801F2E04F0E511C1A
:100B9000F801C080D180692D70E036FC02C06FEF93
:100BA0007FEFC6010E9431074C01689437F882013B
:100BB0000AC00C5F1F4FFFE3F98388248394912CB4
:100BC0006501E89437F833FE2DC0522C811491044E
:100BD00071F5552009F468CFB70180E290E00E94DA
:100BE00047075A94F6CFF801808189830E5F1F4F23
:100BF000E4CF2801F2E04F0E511CF801C080D180F3
:100C0000692D70E036FC02C06FEF7FEFC6010E94D5
:100C10003C074C018201D5CFB70180E290E00E94F1
:100C200047072A942814190409F0B0F7CECFF6012B
:100C300037FC859137FE81916F01B70190E00E94EA
:100C4000470751105A94F1E08F1A9108BFCF8436AC
:100C500019F0893609F077C0F80137FE6BC0608162
:100C60007181828193810C5F1F4FF32DFF763F2EA0
:100C700097FF09C090958095709561957F4F8F4F34
:100C80009F4F689437F82AE030E0A5010E9477076B
:100C9000C82ECA188C2C432C36FE0CC0E89440F8A1
:100CA000C91440F434FE05C032FC03C0F32DFE7EAF
:100CB0004F2E892C44FEAAC0FE01EC0DF11D80814F
:100CC000803309F09CC0242D297E422E842D88700B
:100CD000582E43FCAAC040FEA4C09C2C821418F4D9
:100CE0002C0C922C981844FEA6C0B70180E390E02B
:100CF0000E94470742FE09C088E790E041FE02C01B
:100D000088E590E0B7010E944707C91408F49FC026
:100D1000CA94D12C9FEFC91AD90ACA0CDB1CF60160
:100D200082916F01B70190E00E944707AC14BD04A7
:100D3000B1F74FCF60817181072E000C880B990BA2
:100D40000E5F1F4F92CFD32CE894D4F82AE030E006
:100D50008537E1F1232D297FD22E8F36A9F1F0F4CA
:100D6000883551F1F701868197812B960FB6F8945B
:100D7000DEBF0FBECDBFDF91CF911F910F91FF90CE
:100D8000EF90DF90CF90BF90AF909F908F907F902B
:100D90006F905F904F903F902F900895803749F06B
:100DA000883701F7D4FE02C06894D2F820E130E021
:100DB0000DC06894D4F8F6CF34FE03C0822F86604D
:100DC000D82E20E132E002C028E030E0F801D7FE62
:100DD0000FC060817181828193810C5F1F4FA501DB
:100DE0000E947707C82ECA183D2CE89437F852CFD6
:100DF0006081718190E080E00E5F1F4FF0CF42FC78
:100E000002C0839463CF8394839460CF842D8678CB
:100E100009F45CCFF6CFB70180E290E00E9447076B
:100E200083948214C0F3512C5ECF522C5818821434
:100E300008F459CFF8CF842D867809F466CF8BE279
:100E400041FE80E247FC8DE2B70190E05CCFB70144
:100E500080E390E00E9447079A9457CF8FEF9FEF6F
:100E600084CFFC010590615070400110D8F7809547
:100E700090958E0F9F1F0895FC0161507040019066
:100E80000110D8F7809590958E0F9F1F08950F93AE
:100E90001F93CF93DF93182F092FEB018B8181FDD7
:100EA00009C01FEF0FEF812F902FDF91CF911F917E
:100EB0000F91089582FF14C02E813F818C819D8106
:100EC000281739073CF4E881F981CF01019699830D
:100ED000888310838E819F8101969F838E83E3CFC9
:100EE000E885F985812F0995892BA1F3DACFFA01DD
:100EF000AA27283051F1203181F1E8946F936E7F59
:100F00006E5F7F4F8F4F9F4FAF4FB1E03ED0B4E049
:100F10003CD0670F781F891F9A1FA11D680F791F8A
:100F20008A1F911DA11D6A0F711D811D911DA11D9B
:100F300020D009F468943F912AE0269F11243019AB
:100F4000305D3193DEF6CF010895462F4770405D46
:100F50004193B3E00FD0C9F7F6CF462F4F70405DF5
:100F60004A3318F0495D31FD4052419302D0A9F750
:100F7000EACFB4E0A6959795879577956795BA954A
:100F8000C9F700976105710508959B01AC010A2E10
:100F900006945795479537952795BA95C9F7620FE7
:0E0FA000731F841F951FA01D0895F894FFCFA6
:100FAE00010A0D54656D703A200025642E256400EB
:100FBE000A0D48756D693A200025752E25750000BD
:00000001FF
