:100000000C9446000C9465000C9465000C946500FB
:100010000C9465000C9465000C9465000C946500CC
:100020000C9465000C9465000C9465000C946500BC
:100030000C9465000C9465000C9465000C946500AC
:100040000C9465000C9465000C9465000C9465009C
:100050000C9465000C9465000C9465000C9465008C
:100060000C9465000C9465000C9465000C9465007C
:100070000C9465000C9465000C9465000C9465006C
:100080000C9465000C9465000C94650011241FBE4F
:10009000CFEFD0E1DEBFCDBF11E0A0E0B1E0E4E3FF
:1000A000F1E000E00BBF02C007900D92AA30B1074B
:1000B000D9F721E0AAE0B1E001C01D92AA30B20751
:1000C000E1F70E9467000C9498000C940000CF9315
:1000D000DF93CDB7DEB72A970FB6F894DEBF0FBE19
:1000E000CDBF8AE0E0E0F1E0DE01119601900D92D3
:1000F0008A95E1F78FEF8ABB1BB888E18AB986E160
:10010000809395001092900087E089B95F9BFECFA5
:10011000ECB15F9A80ED8E0F8A30C0F781ED9FEFD2
:100120008C0F9D1F8E0F911DFC0180818BBBEECF2C
:04013000F894FFCF71
:0A0134003F065B4F666D7D277F6775
:00000001FF
