:100000000C9446000C9465000C9465000C946500FB
:100010000C9465000C9465000C9465000C946500CC
:100020000C9465000C9465000C9465000C946500BC
:100030000C9465000C9465000C9465000C946500AC
:100040000C9465000C9465000C9465000C9465009C
:100050000C9465000C9465000C9465000C9465008C
:100060000C9465000C9465000C9465000C9465007C
:100070000C9465000C9465000C9465000C9465006C
:100080000C9465000C9465000C94650011241FBE4F
:10009000CFEFD0E1DEBFCDBF12E0A0E0B1E0E8ECF1
:1000A000F1E000E00BBF02C007900D92AE3CB1073B
:1000B000D9F722E0AEECB2E001C01D92AF3CB2072E
:1000C000E1F70E9467000C94E2000C940000BF9AD4
:1000D0008AE08FBD89E18EBD10927A007894C12CA0
:1000E00034E2D32E34EFE32EF12CE091CE02F0E097
:1000F000E45FFE4FE081F0E0EE0FFF1FE050FF4FA6
:100100002081318150E040E0C701B6010E94A1008A
:1001100037BD26BD86B597B596958795909379009E
:10012000809378002FEF84E39CE021508040904042
:10013000E1F700C000008091CE028F5F8093CE0275
:10014000D4CF052E97FB1EF400940E94B80057FDF3
:1001500007D00E94C00007FC03D04EF40C94B800F6
:1001600050954095309521953F4F4F4F5F4F0895E3
:1001700090958095709561957F4F8F4F9F4F089513
:10018000A1E21A2EAA1BBB1BFD010DC0AA1FBB1F9B
:10019000EE1FFF1FA217B307E407F50720F0A21B0D
:1001A000B30BE40BF50B661F771F881F991F1A947A
:1001B00069F760957095809590959B01AC01BD01A4
:0801C000CF010895F894FFCF70
:1001C8008801B801EE010B024B0293020000010006
:1001D80005040302030405040302010000010005ED
:1001E80004030203040504030201000001000504DE
:1001F80003020304050403020100000100050403CF
:1002080002030405040302010000010005040302BF
:1002180003040504030201000001000504030203AE
:10022800040504030201000001000504030203049D
:10023800050403020100000100050403020304058C
:10024800040302010000010005040302030405047D
:10025800030201000001000504030203040504036E
:10026800020100000100050403020304050403025F
:100278000100000100050403020304050403020150
:100288000000010005040302030405040302010041
:100298000001000504030203040504030201000031
:1002A8000100050403020304050403020100000120
:1002B8000005040302030405040302010000010011
:1002C80005040302030405040302010000010005FC
:1002D80004030203040504030201000001000504ED
:1002E80003020304050403020100000100050403DE
:1002F80002030405040302010000010005040302CF
:1003080003040504030201000001000504030203BD
:1003180004050403020100000100050403020304AC
:10032800050403020100000100050403020304059B
:10033800040302010000010005040302030405048C
:10034800030201000001000504030203040504037D
:10035800020100000100050403020304050403026E
:10036800010000010005040302030405040302015F
:100378000000010005040302030405040302010050
:0E038800000100050403020304050403020142
:00000001FF
